:020000040800F2
:1000000000000220E9590008E9140008EF14000874
:10001000F5140008FB14000801150008000000009A
:1000200000000000000000000000000007150008AC
:100030001515000800000000231500083115000800
:10004000395A0008395A0008395A0008395A000844
:10005000395A0008395A0008395A0008395A000834
:10006000395A0008395A0008395A0008395A000824
:10007000395A0008395A0008395A0008395A000814
:100080003D15000851150008395A0008000000000D
:10009000000000000000000000000000395A0008C5
:1000A000395A000865150008395A0008395A0008FD
:1000B000395A000879150008395A0008395A0008D9
:1000C000395A0008395A0008395A0008395A0008C4
:1000D000395A0008395A00088D1500080000000040
:1000E000A5150008395A0008395A00080000000018
:1000F000000000000000000000000000395A000865
:1001000000000000395A0008395A0008395A00081E
:1001100000000000000000000000000000000000DF
:10012000BD150008395A0008395A0008395A000824
:10013000395A000800000000000000000000000024
:10014000000000000000000000000000395A000814
:10015000395A0008395A0008395A0008395A000833
:10016000395A0008395A0008000000000000000059
:10017000000000000000000000000000000000007F
:1001800000000000395A00080000000000000000D4
:08019000395A0008395A000831
:1001A00010B5054C237833B9044B13B10448AFF3B1
:1001B00000800123237010BD7000002000000000AB
:1001C000B063000808B5034B1BB103490348AFF304
:1001D000008008BD0000000074000020B06300082B
:1001E000034613F8012B002AFBD1181A0138704777
:1001F00001F0FF01102A2BDB10F0070F08D010F8D8
:10020000013B013A8B422DD010F0070F42B3F6D1DB
:10021000F0B441EA012141EA014122F007047FF0F4
:1002200000070023F0E80256083C85EA010586EA4B
:10023000010685FA47F5A3FA87F586FA47F6A5FA87
:1002400087F68EB9EED1F0BC01F0FF0102F0070293
:1002500032B110F8013B013A83EA010313B1F8D13E
:100260000020704701387047002D06BF354603381F
:10027000073815F0010F07D1013015F4807F02BF58
:10028000013015F4C03F0130F0BC0138704700BFA9
:1002900053B94AB9002908BF00281CBF4FF0FF31ED
:1002A0004FF0FF3000F07AB9ADF1080C6DE904CEE3
:1002B00000F006F8DDF804E0DDE9022304B0704741
:1002C0002DE9F0478C460D460446089E002B51D17F
:1002D0008A4217466DD9B2FA82FEBEF1000F0BD0EA
:1002E000CEF1200C01FA0EF520FA0CFC02FA0EF702
:1002F0004CEA050C00FA0EF44FEA174A250CBCFB39
:10030000FAF81FFA87F90AFB18CC45EA0C4508FBF6
:1003100009F3AB420AD9ED1908F1FF3280F02381CD
:10032000AB4240F22081A8F102083D44ED1AA4B28C
:10033000B5FBFAF00AFB105544EA054400FB09F945
:10034000A14509D9E41900F1FF3380F00A81A145E4
:1003500040F2078102383C44A4EB090440EA08401B
:100360000021002E61D024FA0EF400233460736063
:10037000BDE8F0878B4207D9002E54D0002186E8D3
:1003800021000846BDE8F087B3FA83F1002940F068
:100390008E80AB4202D3824200F2FA80841A65EB6F
:1003A00003050120AC46002E3FD086E81010BDE8C2
:1003B000F08712B90127B7FBF2F7B7FA87FEBEF153
:1003C000000F34D1EB1B3A0C1FFA87FC0121B3FB61
:1003D000F2F8250C02FB183345EA03450CFB08F341
:1003E000AB4207D9ED1908F1FF3002D2AB4200F25F
:1003F000D1808046ED1AA3B2B5FBF2F002FB105596
:1004000043EA05440CFB00FCA44507D9E41900F1BC
:10041000FF3302D2A44500F2B8801846A4EB0C04C6
:1004200040EA08409DE731463046BDE8F087CEF10E
:10043000200405FA0EF307FA0EF720FA04F83A0C36
:1004400025FA04F448EA0308B4FBF2F14FEA184530
:1004500002FB11441FFA87FC45EA044501FB0CF33B
:10046000AB4200FA0EF409D9ED1901F1FF3080F02A
:100470008A80AB4240F2878002393D44EB1A1FFA72
:1004800088F5B3FBF2F002FB103345EA034500FBAD
:100490000CF3AB4207D9ED1900F1FF386FD2AB4234
:1004A0006DD902383D44EB1A40EA01418FE7C1F1B2
:1004B000200722FA07F88B4005FA01F448EA030303
:1004C00020FA07FE4FEA134CFD404EEA040EB5FB3E
:1004D000FCF94FEA1E440CFB19551FFA83F844EA55
:1004E000054509FB08F4AC4202FA01F200FA01FAF0
:1004F00008D9ED1809F1FF3043D2AC4241D9A9F136
:1005000002091D442D1B1FFA8EFEB5FBFCF00CFBEF
:1005100010554EEA054400FB08F8A04507D9E41839
:1005200000F1FF3529D2A04527D902381C4440EA02
:100530000940A4EB0804A0FB02894C45C6464D4681
:1005400015D312D056B1BAEB0E0364EB050404FACE
:1005500007F7CB401F43CC40376074600021BDE8F3
:10056000F0871846F8E69046E0E6C245EAD2B8EBD6
:10057000020E69EB03050138E4E72846D7E7404659
:1005800091E78146BEE7014678E702383C4445E7FB
:10059000084608E7A8F102083D442BE7704700BF72
:1005A00080B586B002AF0346FB71FB7923F00F03E1
:1005B000FB73FB791B01BB73FB7B43F00C03DBB2CA
:1005C0003B72FB7B43F00803DBB27B72BB7B43F0E7
:1005D0000C03DBB2BB72BB7B43F00803DBB2FB72E4
:1005E00007F108026423009304234E21034802F01C
:1005F000E9FC00BF1037BD4680BD00BF00010020F0
:1006000080B586B002AF0346FB71FB7923F00F0380
:10061000FB73FB791B01BB73FB7B43F00D03DBB268
:100620003B72FB7B43F00903DBB27B72BB7B43F085
:100630000D03DBB2BB72BB7B43F00903DBB2FB7281
:1006400007F108026423009304234E21034802F0BB
:10065000B9FC00BF1037BD4680BD00BF00010020BF
:1006600080B582B000AF8020FFF79AFF00237B6047
:1006700005E02020FFF7C4FF7B6801337B607B68C7
:10068000452BF6DD00BF0837BD4680BD80B582B082
:1006900000AF786039607B68002B02D0012B05D059
:1006A00009E03B6843F080033B6004E03B6843F0B3
:1006B000C0033B6000BF3B68DBB21846FFF770FF2A
:1006C00000BF0837BD4680BD80B500AF322001F0C5
:1006D00033F83020FFF764FF052001F02DF83020BB
:1006E000FFF75EFF012001F027F83020FFF758FFE9
:1006F0000A2001F021F82020FFF752FF0A2001F024
:100700001BF82820FFF74CFF012001F015F8082006
:10071000FFF746FF012001F00FF80120FFF740FF2F
:10072000012001F009F8012001F006F80620FFF78A
:1007300037FF012001F000F80C20FFF731FF00BF68
:1007400080BD80B582B000AF786006E07B685A1C3F
:100750007A601B781846FFF753FF7B681B78002BE5
:10076000F4D100BF0837BD4680BD000080B588B019
:1007700000AF7860234A07F1100392E8030083E892
:1007800003000023FB8300237B7711E07B7F7A68E3
:1007900013441A787B7F07F120010B4413F8103CB7
:1007A0009A4209D1FB8B0133FB837B7F01337B773B
:1007B0007B7F072BEAD900E000BFFB8B082B1DD104
:1007C00000237B8317E07B8B0F4A32F813303B8387
:1007D0003B8B07F108010A22184605F071F92C231A
:1007E0003B7307F1080132230522084804F015F98C
:1007F0007B8B01337B837B8B3B2BE4D900BF203782
:10080000BD4680BDC8630008A0020020A4030020EC
:1008100080B500AF00F01EFF00F042F800F0AAFA29
:1008200000F06AFA00F0AAF800F03CFA00F0F8F8DC
:1008300000F076F900F0DEF900F020F9FFF744FF50
:100840001048FFF77EFF01220F49104800F0DAFF41
:100850000F4B1B78DBB2012B05D10D4B00221A7018
:100860000C4803F0ACFB0C4B1B680B4A1268D268B7
:1008700042F01002DA6009220849074804F066F9DC
:10088000E6E700BFD06300088C0000209401002040
:100890008F00002018030020A4030020580300202C
:1008A00080B594B000AF07F1200330220021184634
:1008B00005F008F907F10C0300221A605A609A60EB
:1008C000DA601A610023BB602A4A2A4B1B6C43F092
:1008D00080531364274B1B6C03F08053BB60BB68D1
:1008E00000237B60244A244B1B6843F4404313607D
:1008F000214B1B6803F440437B607B6801233B6210
:100900004FF480337B620223BB634FF48003FB63AD
:1009100004233B6448237B640223BB640423FB64FD
:1009200007F12003184602F055FE0346002B01D0C4
:1009300000F0BAFB0F23FB6002233B6100237B61C5
:100940004FF48053BB610023FB6107F10C030221CC
:10095000184603F0AFF80346002B01D000F0A4FBCB
:1009600000224FF48001002003F08AF900BF5037C5
:10097000BD4680BD003802400070004080B584B0A4
:1009800000AF3B4600221A605A609A60DA60214B41
:10099000214A1A601F4B00225A601E4B00229A60A7
:1009A0001C4B00221A611B4B00221A76194B0022A5
:1009B00083F82020174B0022DA62164B174A9A62FE
:1009C000144B0022DA60134B0122DA61114B002232
:1009D00083F830200F4B01225A610E4800F0CEFE02
:1009E0000346002B01D000F05FFB08233B6001238E
:1009F0007B600123BB603B461946064801F034F892
:100A00000346002B01D000F04FFB00BF1037BD465E
:100A100080BD00BF94010020002001400100000FB4
:100A200080B500AF124B134A1A60114B124A5A603C
:100A30000F4B00229A600E4B0022DA600C4B4FF4F1
:100A400080421A610A4B00225A61094B00229A61C6
:100A5000074B0022DA61064B00221A62044802F0BA
:100A600079F90346002B01D000F01EFB00BF80BDCA
:100A70000001002000540040A086010080B586B02F
:100A800000AF07F1080300221A605A609A60DA602A
:100A90003B4600221A605A601F4B204A1A601E4BC8
:100AA00040F264425A601C4B00229A601A4B4FF687
:100AB000FF12DA60184B00221A61174B00225A61AC
:100AC000154B00229A61144803F04EFA0346002B9E
:100AD00001D000F0E9FA4FF48053BB6007F108033E
:100AE00019460D4803F008FC0346002B01D000F026
:100AF000DBFA00233B6000237B603B461946064837
:100B000003F0BCFE0346002B01D000F0CDFA00BF7D
:100B10001837BD4680BD00BF18030020000001400B
:100B200080B58CB000AF07F1200300221A605A6034
:100B30009A60DA6007F10C0300221A605A609A602A
:100B4000DA601A613B1D00221A605A60284B4FF090
:100B500080421A60264B00225A60254B00229A6080
:100B6000234B4FF0FF32DA60214B00221A61204BF9
:100B700000229A611E4803F0F7F90346002B01D0CA
:100B800000F092FA4FF400533B6200237B62002393
:100B9000BB620023FB6207F120031946144803F0EF
:100BA000ABFB0346002B01D000F07EFA0523FB606F
:100BB00020233B6107F10C0319460D4803F053FC59
:100BC0000346002B01D000F06FFA20237B608023C6
:100BD000BB603B1D1946064803F050FE0346002B40
:100BE00001D000F061FA00BF3037BD4680BD00BFC4
:100BF0006403002080B586B000AF07F1080300222F
:100C00001A605A609A60DA603B4600221A605A60A5
:100C1000224B234A1A60214B41F61F425A601F4B58
:100C200010229A601D4B42F20F72DA601B4B0022B9
:100C30001A611A4B00229A61184803F095F903468D
:100C4000002B01D000F030FA4FF48053BB6007F165
:100C500008031946114803F04FFB0346002B01D04F
:100C600000F022FA08210D4803F0F8F90346002BA2
:100C700001D000F019FA10233B6080237B603B46D3
:100C80001946064803F0FAFD0346002B01D000F098
:100C90000BFA00BF1837BD4680BD00BF54010020CD
:100CA0000004004080B500AF114B124A1A60104B8F
:100CB0004FF4E1325A600E4B00229A600C4B002236
:100CC000DA600B4B00221A61094B0C225A61084B67
:100CD00000229A61064B0022DA61054803F050FEBB
:100CE0000346002B01D000F0DFF900BF80BD00BF3C
:100CF000A40300200044004080B582B000AF002370
:100D00007B601B4A1A4B1B6B43F400131363184B95
:100D10001B6B03F400137B607B6800233B60144A69
:100D2000134B1B6B43F480031363114B1B6B03F4D6
:100D300080033B603B6800220021102001F01FFA75
:100D4000102001F038FA00220021112001F017FADA
:100D5000112001F030FA00220021382001F00FFAB2
:100D6000382001F028FA00BF0837BD4680BD00BF1B
:100D70000038024080B58AB000AF07F114030022AA
:100D80001A605A609A60DA601A6100233B61394A3E
:100D9000384B1B6B43F004031363364B1B6B03F0A0
:100DA00004033B613B690023FB60324A314B1B6B00
:100DB00043F0800313632F4B1B6B03F08003FB6036
:100DC000FB680023BB602B4A2A4B1B6B43F00103DB
:100DD0001363284B1B6B03F00103BB60BB6800234C
:100DE0007B60244A234B1B6B43F002031363214BAC
:100DF0001B6B03F002037B607B68002220211E48EE
:100E000001F076FF4FF400537B611C4BBB61022362
:100E1000FB6107F114031946194801F0E7FD20238F
:100E20007B610123BB610023FB6100233B6207F16F
:100E300014031946104801F0D9FD4FF480737B610B
:100E40000223BB610023FB6103233B6200237B621F
:100E500007F114031946084801F0C8FD00220021DB
:100E6000282001F08CF9282001F0A5F900BF2837CF
:100E7000BD4680BD00380240000002400000111055
:100E80000008024080B483B000AF78607B681B68C4
:100E9000054A934202D1054B01221A7000BF0C375C
:100EA000BD465DF8047B7047002001408E000020A5
:100EB00080B584B000AF78607B681B680D4A9342B0
:100EC00014D17B681B681B6803F01003102B0DD135
:100ED0000023FB607B681B681B68FB607B681B68EA
:100EE0005B68FB60FB68786800F006F800BF1037AD
:100EF000BD4680BD0044004080B582B000AF786040
:100F0000786803F0A3FE054B01221A700448FFF72E
:100F10002DFC00BF0837BD4680BD00BFE4030020A4
:100F20005803002080B59CB000AF78607B681B68D8
:100F3000454A934258D1454B1B883B2B45D8444BDF
:100F40001B78DBB2012B4FD1414B00221A70414874
:100F500000F02CFD404B00221A8001223E493D4802
:100F600000F050FC002387F86F3009E097F86F30ED
:100F70003A4A0021D15497F86F30013387F86F3027
:100F800097F86F30032BF1D9334B1B889BB20A22A1
:100F90003249184604F094FDFFF762FB002100205F
:100FA000FFF774FB2D48FFF7CCFB284B1B881A4634
:100FB000294B1B8899B22A4B23F81210234B1B880C
:100FC00001339AB2214B1A800EE0204B00221A8086
:100FD000244803F018F8FFF743FB00210020FFF737
:100FE00055FB2148FFF7ADFB7B68204A934226D191
:100FF0001F4B1B685B6ABB6607F108036022002178
:10100000184604F05FFD07F10800BB6E194A602125
:1010100004F060FD07F108031846FFF7E1F8034606
:101020009AB207F108014FF47A73134803F0F5FC04
:101030000F4B1B6800225A620C4802F0C0FF00BF31
:101040007037BD4680BD00BF000001409000002009
:101050008E000020940100208C000020DC01002084
:10106000A002002018030020E063000854010020C3
:1010700064030020F4630008A403002080B483B05C
:1010800000AF0346FB80FB88B3F5005F03D1054B3F
:1010900001221A7000E000BF00BF0C37BD465DF8AA
:1010A000047B70478F00002080B400AF72B6FEE76B
:1010B00080B582B000AF00237B60104A0F4B5B6CA1
:1010C00043F4804353640D4B5B6C03F480437B60BB
:1010D0007B6800233B60094A084B1B6C43F080533C
:1010E0001364064B1B6C03F080533B603B68072086
:1010F00001F03AF800BF0837BD4680BD0038024015
:1011000080B58AB000AF786007F1140300221A603E
:101110005A609A60DA601A617B681B682E4A9342B3
:1011200056D100233B612D4A2C4B5B6C43F48073FA
:1011300053642A4B5B6C03F480733B613B6900236F
:10114000FB60264A254B1B6B43F002031363234BC2
:101150001B6B03F00203FB60FB6801237B6103232D
:10116000BB610023FB6107F1140319461C4801F021
:101170003DFC1C4B1C4A1A601A4B00225A60194B4A
:1011800000229A60174B0022DA60164B4FF48062FF
:101190001A61144B4FF400625A61124B4FF4005223
:1011A0009A61104B0022DA610E4B00221A620D4B3D
:1011B00000225A620B4801F019F80346002B01D0B7
:1011C000FFF772FF7B68074A9A63064A7B6893635E
:1011D00000BF2837BD4680BD0020014000380240D6
:1011E00000040240400200201064024080B58AB032
:1011F00000AF786007F1140300221A605A609A6009
:10120000DA601A617B681B68194A93422BD100236C
:101210003B61184A174B1B6B43F002031363154BDA
:101220001B6B03F002033B613B69C0237B6112230C
:10123000BB610123FB6103233B6204237B6207F153
:10124000140319460C4801F0D1FB0023FB60094A46
:10125000084B1B6C43F400131364064B1B6C03F424
:101260000013FB60FB6800BF2837BD4680BD00BF90
:1012700000540040003802400004024080B58CB0A9
:1012800000AF786007F11C0300221A605A609A6070
:10129000DA601A617B681B68354A934216D10023D5
:1012A000BB61344A334B5B6C43F001035364314BF5
:1012B0005B6C03F00103BB61BB69002200211920B4
:1012C00000F05DFF192000F076FF4DE07B681B68A1
:1012D000B3F1804F2DD100237B61264A254B1B6C37
:1012E00043F001031364234B1B6C03F001037B6188
:1012F0007B6900233B611F4A1E4B1B6B43F00103BC
:1013000013631C4B1B6B03F001033B613B694FF400
:101310000043FB6102233B6200237B620023BB622C
:101320000123FB6207F11C031946134801F05EFB21
:101330001AE07B681B68114A934215D10023FB60B9
:101340000C4A0C4B1B6C43F002031364094B1B6CDF
:1013500003F00203FB60FB68002200211D2000F067
:101360000EFF1D2000F027FF00BF3037BD4680BDB7
:10137000000001400038024000000240000400402C
:1013800080B58AB000AF786007F1140300221A60BC
:101390005A609A60DA601A617B681B684B4A934214
:1013A00040F0908000233B61494A494B1B6C43F459
:1013B00000331364464B1B6C03F400333B613B6901
:1013C0000023FB60424A424B1B6B43F00103136353
:1013D0003F4B1B6B03F00103FB60FB680C237B613D
:1013E0000223BB610023FB6103233B6207237B6273
:1013F00007F114031946374801F0F8FA364B374A1B
:101400001A60354B4FF000625A60334B00229A60ED
:10141000314B0022DA60304B4FF480621A612E4B60
:1014200000225A612C4B00229A612B4B0022DA6178
:10143000294B00221A62284B00225A62264800F0EB
:10144000D5FE0346002B01D0FFF72EFE7B68224A13
:101450005A63214A7B689363214B224A1A60204BCE
:101460004FF000625A601E4B40229A601C4B0022D3
:10147000DA601B4B4FF480621A61194B00225A61EB
:10148000174B00229A61164B0022DA61144B00229E
:101490001A62134B00225A62114800F0A7FE03465D
:1014A000002B01D0FFF700FE7B680D4A1A630C4A3F
:1014B0007B68936300220021262000F060FE262036
:1014C00000F079FE00BF2837BD4680BD00440040D3
:1014D0000038024000000240A00000208860024066
:1014E000E0010020A060024080B400AFFEE780B4BD
:1014F00000AFFEE780B400AFFEE780B400AFFEE7C8
:1015000080B400AFFEE780B400AF00BFBD465DF819
:10151000047B704780B400AF00BFBD465DF8047B1C
:10152000704780B400AF00BFBD465DF8047B7047D4
:1015300080B500AF00F0E0F800BF80BD80B500AF1F
:10154000024800F0EBFF00BF80BD00BFA0000020FC
:1015500080B500AF024800F0E1FF00BF80BD00BFD2
:10156000E001002080B500AF024802F0BDFD00BFE1
:1015700080BD00BF1803002080B500AF024802F014
:10158000B3FD00BF80BD00BF5401002080B500AF97
:10159000034803F0B7FB0248FFF78AFC00BF80BD99
:1015A000A403002080B500AF4FF4005001F0BAFB57
:1015B0004FF4005001F0B6FB00BF80BD80B500AF16
:1015C000024800F0ABFF00BF80BD00BF400200201A
:1015D00080B584B000AF7860114B1B68002B02D13E
:1015E0000F4B104A1A600E4B1B68FB600C4B1A68BD
:1015F0007B6813446A46934207D904F01FFA0246F7
:101600000C2313604FF0FF3306E0054B1A687B682C
:101610001344034A1360FB6818461037BD4680BD6B
:1016200094000020F003002080B400AF084A084B6B
:10163000D3F8883043F47003C2F88830044B4FF07D
:1016400000629A6000BFBD465DF8047B704700BF32
:1016500000ED00E080B500AF0E4A0E4B1B6843F46E
:10166000007313600B4A0B4B1B6843F480631360D9
:10167000084A084B1B6843F480731360032000F092
:1016800073FD002000F008F8FFF712FD0023184654
:1016900080BD00BF003C024080B582B000AF7860E2
:1016A000124B1A68124B1B7819464FF47A73B3FB2E
:1016B000F1F3B2FBF3F3184600F08BFD0346002B69
:1016C00001D001230EE07B680F2B0AD80022796835
:1016D0004FF0FF3000F053FD064A7B681360002393
:1016E00000E0012318460837BD4680BD00000020F9
:1016F000080000200400002080B400AF064B1B78D7
:101700001A46064B1B681344044A136000BFBD46CB
:101710005DF8047B704700BF08000020E80300204C
:1017200080B400AF034B1B681846BD465DF8047BD0
:10173000704700BFE803002080B584B000AF786038
:10174000FFF7EEFFB8607B68FB60FB68B3F1FF3F1B
:1017500005D0094B1B781A46FB681344FB6000BF99
:10176000FFF7DEFF0246BB68D21AFB689A42F7D346
:1017700000BF1037BD4680BD0800002080B584B092
:1017800000AF78600023FB737B68002B01D101233D
:1017900033E07B681B6C002B09D17868FFF7B0FC45
:1017A0007B6800225A647B68002283F83C207B68B7
:1017B0001B6C03F01003002B18D17B681B6C23F407
:1017C000885323F0020343F002027B681A647868AE
:1017D00000F07EFA7B6800225A647B681B6C23F061
:1017E000030343F001027B681A6401E00123FB73E9
:1017F0007B68002283F83C20FB7B18461037BD46EF
:1018000080BD000080B586B000AFF860B9607A6036
:1018100000233B61FB6893F83C30012B01D102238C
:10182000B1E0FB68012283F83C20FB681B689B68E1
:1018300003F00103012B18D0FB681B68FA681268DB
:10184000926842F001029A60514B1B68514AA2FB18
:1018500003239A0C13465B0013443B6102E03B698F
:10186000013B3B613B69002BF9D1FB681B689B681E
:1018700003F00103012B40F08580FB681B6C23F40F
:10188000E06323F0010343F48072FB681A64FB6891
:101890001B685B6803F48063002B07D0FB681B6C3C
:1018A00023F4405343F48052FB681A64FB681B6CBA
:1018B00003F48053B3F5805F06D1FB685B6C23F0C3
:1018C0000602FB685A6402E0FB6800225A64FB6867
:1018D000002283F83C20304B7B61FB689B6B2F4AD6
:1018E000DA63FB689B6B2E4A1A64FB689B6B2D4A7C
:1018F000DA64FB681B686FF022021A60FB681B68E1
:10190000FA681268526842F080625A60FB681B688D
:10191000FA681268926842F480729A60FB68986B69
:10192000FB681B684C331946BA687B6800F00CFDF5
:101930007B695B6803F01F03002B0FD1FB681B68FA
:101940009B6803F04053002B1CD1FB681B68FA68AE
:101950001268926842F080429A6013E0FB681B684C
:10196000114A93420ED1FB681B689B6803F04053F9
:10197000002B07D1FB681B68FA681268926842F076
:1019800080429A60002318461837BD4680BD00BFCC
:101990000000002083DE1B4300230140C91E000815
:1019A000831F00089F1F00080020014080B584B0FD
:1019B00000AF78600023FB737B6893F83C30012B09
:1019C00001D1022338E07B68012283F83C207B6848
:1019D0001B687A681268926822F001029A607B683C
:1019E0001B689B6803F00103002B20D17B681B68F8
:1019F0007A681268926822F480729A607B689B6BA6
:101A0000184600F0F9FC0346FB737B681B687A6894
:101A10001268526822F080625A607B681B6C23F463
:101A2000885323F0010343F001027B681A647B684A
:101A3000002283F83C20FB7B18461037BD4680BD52
:101A400080B483B000AF786000BF0C37BD465DF84E
:101A5000047B704780B483B000AF786000BF0C3760
:101A6000BD465DF8047B704790B484B000AF7860E9
:101A700039600023BB607B6893F83C30012B01D1B7
:101A8000022315E17B68012283F83C203B681B6838
:101A9000092B26D97B681A687B681B68D9683B6864
:101AA0001B689BB2184603465B0003441E3B07209D
:101AB00000FA03F3DB430B40D3607B681A687B6852
:101AC0001B68D9683B6898683B681B689BB21C46DA
:101AD00023465B0023441E3B00FA03F30B43D36011
:101AE00023E07B681A687B681B6819693B681B6880
:101AF0009BB2184603465B000344072000FA03F339
:101B0000DB430B4013617B681A687B681B681969AB
:101B10003B6898683B681B689BB21C4623465B0089
:101B2000234400FA03F30B4313613B685B68062B05
:101B300024D87B6819687B681B68586B3B685A68B7
:101B400013469B001344053B1F2202FA03F3DB43B9
:101B500003404B637B6819687B681B68586B3B6864
:101B60001B689BB21C463B685A6813469B00134493
:101B7000053B04FA03F303434B634CE03B685B68AB
:101B80000C2B24D87B6819687B681B68186B3B6832
:101B90005A6813469B001344233B1F2202FA03F3A7
:101BA000DB4303400B637B6819687B681B68186B19
:101BB0003B681B689BB21C463B685A6813469B00F7
:101BC0001344233B04FA03F303430B6323E07B68D2
:101BD00019687B681B68D86A3B685A6813469B0083
:101BE0001344413B1F2202FA03F3DB430340CB6261
:101BF0007B6819687B681B68D86A3B681B689BB266
:101C00001C463B685A6813469B001344413B04FA48
:101C100003F30343CB62294BFB607B681B68284AB4
:101C200093420FD13B681B68122B0BD1FB685B689A
:101C300023F40002FB685A60FB685B6843F480028F
:101C4000FB685A607B681B681D4A93422BD13B6836
:101C50001B681C4A934203D03B681B68112B22D19E
:101C6000FB685B6823F48002FB685A60FB685B6872
:101C700043F40002FB685A603B681B68114A9342B8
:101C800011D1114B1B68114AA2FB03239A0C134676
:101C90009B0013445B00BB6002E0BB68013BBB6080
:101CA000BB68002BF9D17B68002283F83C2000231D
:101CB00018461037BD4690BC704700BF0023014056
:101CC00000200140120000100000002083DE1B43B2
:101CD00080B485B000AF7860794BFB60FB685B68CF
:101CE00023F44032FB685A60FB685A687B685B6883
:101CF0001A43FB685A607B681B687A6812685268EE
:101D000022F480725A607B681B687A681268516896
:101D10007A68126912020A435A607B681B687A6803
:101D20001268526822F040725A607B681B687A68B9
:101D3000126851687A6892680A435A607B681B6827
:101D40007A681268926822F400629A607B681B6865
:101D50007A68126891687A68D2680A439A607B68E8
:101D60009B6A584A934222D07B681B687A68126843
:101D7000926822F070629A607B681B687A681268C9
:101D800091687A68926A0A439A607B681B687A68ED
:101D90001268926822F040529A607B681B687A68E9
:101DA000126891687A68D26A0A439A600FE07B6889
:101DB0001B687A681268926822F070629A607B6889
:101DC0001B687A681268926822F040529A607B68B9
:101DD0001B687A681268926822F002029A607B6837
:101DE0001B687A68126891687A68127E52000A430A
:101DF0009A607B6893F82030002B1BD07B681B68AF
:101E00007A681268526842F400625A607B681B6804
:101E10007A681268526822F460425A607B681B68D4
:101E20007A68126851687A68526A013A52030A4322
:101E30005A6007E07B681B687A681268526822F46F
:101E400000625A607B681B687A681268D26A22F462
:101E50007002DA627B681B687A681268D16A7A68F5
:101E6000D269013A12050A43DA627B681B687A6814
:101E70001268926822F400729A607B681B687A6824
:101E8000126891687A6892F8302052020A439A6088
:101E90007B681B687A681268926822F480629A6094
:101EA0007B681B687A68126891687A685269920246
:101EB0000A439A6000BF1437BD465DF8047B704743
:101EC000002301400100000F80B584B000AF7860AE
:101ED0007B689B6BFB60FB681B6C03F05003002B63
:101EE0003CD1FB681B6C43F40072FB681A64FB680E
:101EF0001B689B6803F04053002B2BD1FB681B7EB3
:101F0000002B27D1FB681B68DB6A03F47003002BEE
:101F100006D0FB681B689B6803F48063002B19D113
:101F2000FB681B68FA681268526822F020025A6047
:101F3000FB681B6C23F48072FB681A64FB681B6CE3
:101F400003F48053002B05D1FB681B6C43F00102A6
:101F5000FB681A64F868FEF795FF0EE0FB681B6CDF
:101F600003F01003002B03D0F868FFF773FD04E0C3
:101F7000FB689B6BDB6C7868984700BF1037BD46E9
:101F800080BD80B584B000AF78607B689B6BFB60E0
:101F9000F868FFF755FD00BF1037BD4680BD80B51E
:101FA00084B000AF78607B689B6BFB60FB6840226D
:101FB0001A64FB685B6C43F00402FB685A64F868BF
:101FC000FFF748FD00BF1037BD4680BD80B485B027
:101FD00000AF78607B6803F00703FB600C4BDB68A5
:101FE000BB60BA684FF6FF031340BB60FB681A0280
:101FF000BB68134343F0BF6343F40033BB60044A40
:10200000BB68D36000BF1437BD465DF8047B7047E2
:1020100000ED00E080B400AF044BDB681B0A03F066
:1020200007031846BD465DF8047B704700ED00E0ED
:1020300080B483B000AF0346FB7197F90730002BE3
:102040000BDB094997F907305B09FA7902F01F02A7
:10205000012000FA02F241F8232000BF0C37BD46F0
:102060005DF8047B704700BF00E100E080B483B0FE
:1020700000AF03463960FB7197F90730002B0ADB8C
:102080000D4997F907303A68D2B21201D2B20B4427
:1020900083F800230AE00949FB7903F00F03043BAE
:1020A0003A68D2B21201D2B20B441A7600BF0C3792
:1020B000BD465DF8047B704700E100E000ED00E004
:1020C00080B489B000AFF860B9607A60FB6803F053
:1020D0000703FB61FB69C3F10703042B28BF04233B
:1020E000BB61FB690433062B02D9FB69033B00E0AB
:1020F00000237B610122BB6902FA03F35A1EBB680D
:102100001A407B699A4001217B6901FA03F3591E49
:102110007B680B40134318462437BD465DF8047BAB
:102120007047000080B582B000AF78607B68013BEB
:10213000B3F1807F01D301230FE00A4A7B68013BA2
:1021400053600F214FF0FF30FFF790FF054B002247
:102150009A60044B07221A60002318460837BD46D0
:1021600080BD00BF10E000E080B582B000AF7860B5
:102170007868FFF72BFF00BF0837BD4680BD80B5EC
:1021800086B000AF0346B9607A60FB7300237B61C1
:10219000FFF740FF78617A68B9687869FFF790FFC8
:1021A000024697F90F3011461846FFF75FFF00BF50
:1021B0001837BD4680BD80B582B000AF0346FB71C5
:1021C00097F907301846FFF733FF00BF0837BD46C1
:1021D00080BD80B582B000AF78607868FFF7A2FF5D
:1021E000034618460837BD4680BD000080B586B05E
:1021F00000AF786000237B61FFF792FA38617B685B
:10220000002B01D1012399E07B68002283F8342060
:102210007B68022283F835207B681B687A68126825
:10222000126822F001021A600FE0FFF779FA024605
:102230003B69D31A052B08D97B6820225A657B6835
:10224000032283F83520032378E07B681B681B6832
:1022500003F00103002BE8D17B681B681B687B61DE
:102260007A69384B13407B617B685A687B689B684E
:102270001A437B68DB681A437B681B691A437B68D7
:102280005B691A437B689B691A437B68DB691A4365
:102290007B681B6A13437A6913437B617B685B6AC3
:1022A000042B07D17B68DA6A7B681B6B13437A695E
:1022B00013437B617B681B687A691A607B681B68C3
:1022C0005B697B617B6923F007037B617B685B6AE9
:1022D0007A6913437B617B685B6A042B17D17B6847
:1022E0009B6A7A6913437B617B68DB6A002B0ED0A3
:1022F000786800F001FB0346002B08D07B68402281
:102300005A657B68012283F83520012316E07B683B
:102310001B687A695A61786800F0B8FA0346FB6076
:102320007B68DB6D3F229A40FB689A607B680022E5
:102330005A657B68012283F8352000231846183738
:10234000BD4680BD3F8010F080B586B000AFF8601C
:10235000B9607A603B600023FB75FB689B6D3B6155
:10236000FB6893F83430012B01D1022340E0FB6875
:10237000012283F83420FB6893F83530DBB2012B5F
:102380002FD1FB68022283F83520FB6800225A65B2
:102390003B687A68B968F86800F04AFAFB68DB6D58
:1023A0003F229A403B699A60FB681B68FA68126892
:1023B000126842F016021A60FB681B6C002B07D0F3
:1023C000FB681B68FA681268126842F008021A601B
:1023D000FB681B68FA681268126842F001021A6012
:1023E00005E0FB68002283F834200223FB75FB7DA7
:1023F00018461837BD4680BD80B584B000AF786000
:102400007B689B6DFB60FFF78BF9B8607B6893F886
:102410003530DBB2022B08D07B6880225A657B689E
:10242000002283F83420012352E07B681B687A681D
:102430001268126822F016021A607B681B687A68BC
:102440001268526922F080025A617B681B6C002B73
:1024500003D17B689B6C002B07D07B681B687A6874
:102460001268126822F008021A607B681B687A689A
:102470001268126822F001021A6013E0FFF750F9A7
:102480000246BB68D31A052B0CD97B6820225A65FB
:102490007B68002283F834207B68032283F8352090
:1024A000032315E07B681B681B6803F00103002B06
:1024B000E4D17B68DB6D3F229A40FB689A607B68C1
:1024C000002283F834207B68012283F83520002322
:1024D00018461037BD4680BD80B483B000AF786029
:1024E0007B6893F83530DBB2022B04D07B68802206
:1024F0005A6501230CE07B68052283F835207B6850
:102500001B687A681268126822F001021A600023C0
:1025100018460C37BD465DF8047B704780B586B021
:1025200000AF78600023BB60924B1B68924AA2FB0D
:1025300003239B0A7B617B689B6D3B613B691B6846
:10254000FB607B68DB6D08229A40FB681340002B20
:102550001AD07B681B681B6803F00403002B13D0A0
:102560007B681B687A681268126822F004021A609D
:102570007B68DB6D08229A403B699A607B685B6DE3
:1025800043F001027B685A657B68DB6D01229A404B
:10259000FB681340002B12D07B681B685B6903F05B
:1025A0008003002B0BD07B68DB6D01229A403B69D6
:1025B0009A607B685B6D43F002027B685A657B68BA
:1025C000DB6D04229A40FB681340002B12D07B681D
:1025D0001B681B6803F00203002B0BD07B68DB6DCC
:1025E00004229A403B699A607B685B6D43F0040269
:1025F0007B685A657B68DB6D10229A40FB6813404C
:10260000002B43D07B681B681B6803F00803002B7A
:102610003CD07B68DB6D10229A403B699A607B68F6
:102620001B681B6803F48023002B18D07B681B6891
:102630001B6803F40023002B08D17B681B6C002B64
:1026400024D07B681B6C786898471FE07B689B6C84
:10265000002B1BD07B689B6C7868984716E07B68E2
:102660001B681B6803F48073002B07D17B681B6811
:102670007A681268126822F008021A607B681B6C84
:10268000002B03D07B681B6C786898477B68DB6DF8
:1026900020229A40FB681340002B00F08E807B685C
:1026A0001B681B6803F01003002B00F086807B681A
:1026B000DB6D20229A403B699A607B6893F8353045
:1026C000DBB2052B36D17B681B687A68126812680A
:1026D00022F016021A607B681B687A6812685269D9
:1026E00022F080025A617B681B6C002B03D17B684F
:1026F0009B6C002B07D07B681B687A681268126895
:1027000022F008021A607B68DB6D3F229A403B6929
:102710009A607B68002283F834207B68012283F86A
:1027200035207B681B6D002B7DD07B681B6D786826
:10273000984778E07B681B681B6803F48023002BB4
:102740001CD07B681B681B6803F40023002B08D196
:102750007B685B6C002B30D07B685B6C786898473B
:102760002BE07B68DB6B002B27D07B68DB6B78680A
:10277000984722E000000020B5814E1B7B681B6853
:102780001B6803F48073002B0FD17B681B687A6889
:102790001268126822F010021A607B68002283F827
:1027A00034207B68012283F835207B68DB6B002BAB
:1027B00003D07B68DB6B786898477B685B6D002B88
:1027C00032D07B685B6D03F00103002B22D07B6865
:1027D000052283F835207B681B687A6812681268C6
:1027E00022F001021A60BB680133BB607A69934230
:1027F00007D87B681B681B6803F00103002BF2D12C
:1028000000E000BF7B68002283F834207B6801224F
:1028100083F835207B68DB6C002B05D07B68DB6C94
:102820007868984700E000BF1837BD4680BD00BFFC
:1028300080B485B000AFF860B9607A603B60FB6837
:102840001B68FA681268126822F480221A60FB681A
:102850001B683A685A60FB689B68402B08D1FB688C
:102860001B687A689A60FB681B68BA68DA6007E0E0
:10287000FB681B68BA689A60FB681B687A68DA6054
:1028800000BF1437BD465DF8047B704780B485B047
:1028900000AF78607B681B68DBB2103B144AA2FB78
:1028A00003231B09FB60134AFB6813441B781A4679
:1028B0007B68DA65FB68032B09D97B681B6823F406
:1028C0007F7323F003031A1D7B689A6507E07B681A
:1028D0001B6823F47F7323F003037A6893657B6896
:1028E0009B6D18461437BD465DF8047B704700BFEA
:1028F000ABAAAAAA2864000880B485B000AF7860AB
:102900000023FB737B689B6ABB607B689B69002B21
:102910001FD1BB68032B55D801A252F823F000BF8A
:10292000312900084329000831290008C529000879
:102930007B68DB6A03F08073002B45D00123FB73B7
:1029400042E07B68DB6AB3F1C07F3FD10123FB73B8
:102950003CE07B689B69B3F5005F21D1BB68032B2A
:1029600036D801A252F823F0792900087F290008FF
:1029700079290008912900080123FB732FE07B6867
:10298000DB6A03F08073002B24D00123FB7321E06A
:102990007B68DB6AB3F1C07F1ED10123FB731BE0B0
:1029A000BB68022B02D9032B03D018E00123FB7371
:1029B00015E07B68DB6A03F08073002B0ED00123E7
:1029C000FB730BE000BF0AE000BF08E000BF06E0B9
:1029D00000BF04E000BF02E000BF00E000BFFB7BDF
:1029E00018461437BD465DF8047B704780B489B043
:1029F00000AF7860396000237B6100233B610023D6
:102A0000BB610023FB6159E10122FB6902FA03F378
:102A10007B613B681A687B6913403B613A697B695B
:102A20009A4240F048813B685B68012B0BD03B68C1
:102A30005B68022B07D03B685B68112B03D03B68B7
:102A40005B68122B30D17B689B68BB61FB695B00C4
:102A5000032202FA03F3DB43BA691340BB613B680C
:102A6000DA68FB695B0002FA03F3BA691343BB61DE
:102A70007B68BA699A607B685B68BB610122FB690D
:102A800002FA03F3DB43BA691340BB613B685B683E
:102A90001B0903F00102FB6902FA03F3BA6913434D
:102AA000BB617B68BA695A607B68DB68BB61FB69A4
:102AB0005B00032202FA03F3DB43BA691340BB61F4
:102AC0003B689A68FB695B0002FA03F3BA69134337
:102AD000BB617B68BA69DA603B685B68022B03D034
:102AE0003B685B68122B23D1FB69DA087B680832EC
:102AF00053F82230BB61FB6903F007039B000F22F0
:102B000002FA03F3DB43BA691340BB613B681A69FD
:102B1000FB6903F007039B0002FA03F3BA6913434E
:102B2000BB61FB69DA087B680832B96943F8221097
:102B30007B681B68BB61FB695B00032202FA03F33D
:102B4000DB43BA691340BB613B685B6803F0030277
:102B5000FB695B0002FA03F3BA691343BB617B684C
:102B6000BA691A603B685B6803F08053002B00F081
:102B7000A2800023FB60564A554B5B6C43F48043B4
:102B80005364534B5B6C03F48043FB60FB68514A16
:102B9000FB699B08023352F82330BB61FB6903F0E9
:102BA00003039B000F2202FA03F3DB43BA691340CD
:102BB000BB617B68484A934219D07B68474A93427D
:102BC00013D07B68464A93420DD07B68454A9342B6
:102BD00007D07B68444A934201D1042308E00723CD
:102BE00006E0032304E0022302E0012300E00023C7
:102BF000FA6902F0030292009340BA691343BB6181
:102C00003449FB699B080233BA6941F82320374BEA
:102C10001B68BB613B69DB43BA691340BB613B681E
:102C20005B6803F48033002B03D0BA693B6913431C
:102C3000BB612E4ABB6913602C4B5B68BB613B696F
:102C4000DB43BA691340BB613B685B6803F4003344
:102C5000002B03D0BA693B691343BB61234ABB69AC
:102C60005360224B9B68BB613B69DB43BA691340ED
:102C7000BB613B685B6803F48013002B03D0BA6927
:102C80003B691343BB61194ABB699360174BDB680F
:102C9000BB613B69DB43BA691340BB613B685B685E
:102CA00003F40013002B03D0BA693B691343BB61E3
:102CB0000E4ABB69D360FB690133FB61FB690F2BD3
:102CC0007FF6A2AE00BF2437BD465DF8047B704797
:102CD0000038024000380140000002400004024079
:102CE00000080240000C024000100240003C01407D
:102CF00080B483B000AF78600B467B8013467B7056
:102D00007B78002B03D07A887B689A6103E07B880C
:102D10001A047B689A6100BF0C37BD465DF8047BDE
:102D20007047000080B582B000AF0346FB80084BBF
:102D30005A69FB881340002B06D0054AFB88536173
:102D4000FB881846FEF79AF900BF0837BD4680BDDC
:102D5000003C014090B585B000AF78607B68002BE7
:102D600001D101231FE17B6893F83D30DBB2002BDA
:102D700006D17B68002283F83C207868FEF736FA9B
:102D80007B68242283F83D207B681B687A68126880
:102D9000126822F001021A607B681B687A68126868
:102DA000126842F400421A607B681B687A681268F5
:102DB000126822F400421A6001F0AEF8F8607B68F5
:102DC0005B687B4A934207D8FB687A4A934294BF78
:102DD00001230023DBB206E0FB68774A934294BFED
:102DE00001230023DBB2002B01D00123DBE0FB68D1
:102DF000724AA2FB03239B0CBB607B681B687A684A
:102E00001268526822F03F01BA680A435A607B6830
:102E10001A687B681B681B6A23F03F017B685B684C
:102E20006348834202D8BB68013309E0BB684FF4B2
:102E3000967000FB03F36248A0FB03039B09013378
:102E40000B4313627B6818687B681B68DB6923F49B
:102E50004F4222F0FF027B685B6855498B420DD8D8
:102E6000FB68591E7B685B685B00B1FBF3F30133C1
:102E7000C3F30B03042B38BF04234FE07B689B682C
:102E8000002B11D1FB685C1E7B6859680B465B0008
:102E90000B44B4FBF3F30133C3F30B03002B0CBF60
:102EA00001230023DBB212E0FB685C1E7B685968DB
:102EB0000B469B000B4499000B44B4FBF3F3013326
:102EC000C3F30B03002B0CBF01230023DBB2002B49
:102ED00001D0012322E07B689B68002B0ED1FB68A8
:102EE0005C1E7B6859680B465B000B44B4FBF3F334
:102EF0000133C3F30B0343F400430FE0FB685C1E94
:102F00007B6859680B469B000B4499000B44B4FB4B
:102F1000F3F30133C3F30B0343F440431343C3619F
:102F20007B681B687A681268126822F0C0017A68B0
:102F3000D0697A68126A02430A431A607B681A6889
:102F40007B681B689B6823F4034323F0FF037968C5
:102F500008697968C96801430B4393607B681B6803
:102F60007A681268D26822F0FF017A6850697A683C
:102F7000926902430A43DA607B681B687A681268C8
:102F8000126842F001021A607B6800221A647B68B2
:102F9000202283F83D207B6800221A637B68002290
:102FA00083F83E20002318461437BD4690BD00BF6D
:102FB000A08601007F841E00FF083D0083DE1B43C6
:102FC000D34D621080B588B002AFF8607A601A46BF
:102FD0000B467B8113463B81FEF7A2FB7861FB68C1
:102FE00093F83D30DBB2202B40F0E0807B6900930A
:102FF000192301227049F86800F064F90346002B98
:1030000001D00223D3E0FB6893F83C30012B01D1BF
:103010000223CCE0FB68012283F83C20FB681B689C
:103020001B6803F00103012B07D0FB681B68FA68DB
:103030001268126842F001021A60FB681B68FA68A5
:103040001268126822F400621A60FB68212283F879
:103050003D20FB68102283F83E20FB6800221A64A2
:10306000FB687A685A62FB683A895A85FB685B8D0F
:103070009AB2FB681A85FB68504ADA6279897B69E3
:103080003A6AF86800F09CF80346002B01D001234F
:103090008DE000233B61FB681B685B693B61FB685B
:1030A0001B689B693B613B6966E07A69396AF8682D
:1030B00000F0DEF90346002B0DD0FB681B6C042BDF
:1030C00007D1FB681B68FA681268126842F4007244
:1030D0001A6001236BE0FB681B68FA68526A127879
:1030E0001A61FB685B6A5A1CFB685A62FB685B8D5D
:1030F0009BB2013B9AB2FB685A85FB681B8D013B72
:103100009AB2FB681A85FB681B685B6903F00403CD
:10311000042B1BD1FB681B8D002B17D0FB681B6891
:10312000FA68526A12781A61FB685B6A5A1CFB687B
:103130005A62FB685B8D9BB2013B9AB2FB685A8571
:10314000FB681B8D013B9AB2FB681A857A69396A64
:10315000F86800F0CEF90346002B0DD0FB681B6C1D
:10316000042B07D1FB681B68FA681268126842F4E6
:1031700000721A6001231AE0FB681B8D002B94D1AA
:10318000FB681B68FA681268126842F400721A60E1
:10319000FB68202283F83D20FB68002283F83E2054
:1031A000FB68002283F83C20002300E0022318463D
:1031B0001837BD4680BD00BF020010000000FFFFB1
:1031C00080B588B002AFF8607A603B600B467B81C7
:1031D000FB68DB6A7B617B69082B06D07B69012B6E
:1031E00003D07B6913F5803F08D1FB681B68FA6840
:1031F0001268126842F480721A600BE0FB681B6B65
:10320000122B07D1FB681B68FA681268126842F437
:1032100080721A603B6800937B6800224FF00111B6
:10322000F86800F04FF80346002B0DD0FB681B68D0
:103230001B6803F48073B3F5807F03D1FB684FF400
:1032400000721A64032334E0FB681B69B3F5804FF6
:1032500007D1FB681B687A89D2B202F0FE021A61BC
:103260001BE0FB681B687A89D211D2B202F0060219
:10327000D2B262F00F02D2B21A613B687A680F498B
:10328000F86800F076F80346002B01D0012310E027
:10329000FB681B687A89D2B21A613B687A68084970
:1032A000F86800F066F80346002B01D0012300E027
:1032B000002318461837BD4680BD00BF0800010036
:1032C0000200010080B584B000AFF860B9603B60D7
:1032D0001346FB7125E03B68B3F1FF3F21D0FEF7B9
:1032E0001FFA0246BB69D21A3B689A4202D83B6871
:1032F000002B16D1FB6800221A63FB68202283F89A
:103300003D20FB68002283F83E20FB681B6C43F0E5
:103310002002FB681A64FB68002283F83C2001232A
:1033200023E0BB681B0CDBB2012B0DD1FB681B68D3
:103330005B69DA43BB6813409BB2002B0CBF0123CF
:103340000023DBB21A460CE0FB681B689B69DA437A
:10335000BB6813409BB2002B0CBF01230023DBB2E0
:103360001A46FB799A42B6D0002318461037BD465C
:1033700080BD80B584B000AFF860B9607A603B6012
:1033800051E0FB681B685B6903F48063B3F5806FF1
:1033900023D1FB681B68FA681268126842F4007255
:1033A0001A60FB681B686FF480625A61FB68002238
:1033B0001A63FB68202283F83D20FB68002283F813
:1033C0003E20FB681B6C43F00402FB681A64FB6838
:1033D000002283F83C20012346E07B68B3F1FF3FE5
:1033E00021D0FEF79DF902463B68D21A7B689A42CB
:1033F00002D87B68002B16D1FB6800221A63FB6899
:10340000202283F83D20FB68002283F83E20FB68E1
:103410001B6C43F02002FB681A64FB68002283F8EF
:103420003C20012320E0BB681B0CDBB2012B0CD13C
:10343000FB681B685B69DA43BB6813409BB2002BD7
:1034400014BF01230023DBB20BE0FB681B689B6900
:10345000DA43BB6813409BB2002B14BF0123002347
:10346000DBB2002B8DD1002318461037BD4680BD3E
:1034700080B584B000AFF860B9607A602DE0F8687C
:1034800000F078F80346002B01D001232DE0BB6843
:10349000B3F1FF3F21D0FEF743F902467B68D21A11
:1034A000BB689A4202D8BB68002B16D1FB68002289
:1034B0001A63FB68202283F83D20FB68002283F812
:1034C0003E20FB681B6C43F02002FB681A64FB681B
:1034D000002283F83C20012307E0FB681B685B693E
:1034E00003F08003802BCAD1002318461037BD4655
:1034F00080BD80B584B000AFF860B9607A602DE01F
:10350000F86800F037F80346002B01D001232DE0C6
:10351000BB68B3F1FF3F21D0FEF702F902467B689A
:10352000D21ABB689A4202D8BB68002B16D1FB683E
:1035300000221A63FB68202283F83D20FB680022EA
:1035400083F83E20FB681B6C43F02002FB681A6482
:10355000FB68002283F83C20012307E0FB681B681E
:103560005B6903F00403042BCAD10023184610370B
:10357000BD4680BD80B483B000AF78607B681B68B7
:103580005B6903F48063B3F5806F1BD17B681B68B4
:103590006FF480625A617B6800221A637B68202284
:1035A00083F83D207B68002283F83E207B681B6CFB
:1035B00043F004027B681A647B68002283F83C2095
:1035C000012300E0002318460C37BD465DF8047B5C
:1035D0007047000080B586B000AF78607B68002B34
:1035E00001D101235BE27B681B6803F00103002B20
:1035F00075D0A34B9B6803F00C03042B0CD0A04B9D
:103600009B6803F00C03082B12D19D4B5B6803F4FD
:103610008003B3F5800F0BD1994B1B6803F4003383
:10362000002B5BD07B685B68002B57D1012336E20F
:103630007B685B68B3F5803F06D1914A904B1B686D
:1036400043F4803313601DE07B685B68B3F5A02F03
:103650000CD18B4A8A4B1B6843F480231360884A41
:10366000874B1B6843F4803313600BE0844A844B20
:103670001B6823F480331360814A814B1B6823F459
:10368000802313607B685B68002B13D0FEF748F83B
:10369000386108E0FEF744F802463B69D31A642B10
:1036A00001D90323FBE1764B1B6803F40033002BA5
:1036B000F0D014E0FEF734F8386108E0FEF730F897
:1036C00002463B69D31A642B01D90323E7E16C4B13
:1036D0001B6803F40033002BF0D100E000BF7B68CF
:1036E0001B6803F00203002B63D0654B9B6803F05B
:1036F0000C03002B0BD0624B9B6803F00C03082BD0
:103700001CD15F4B5B6803F48003002B16D15C4B2C
:103710001B6803F00203002B05D07B68DB68012BDC
:1037200001D00123BBE15649554B1B6823F0F80239
:103730007B681B69DB0013430B603AE07B68DB6846
:10374000002B20D04F4B01221A60FDF7E9FF3861B2
:1037500008E0FDF7E5FF02463B69D31A022B01D9C9
:1037600003239CE1464B1B6803F00203002BF0D0BF
:103770004349434B1B6823F0F8027B681B69DB005D
:1037800013430B6015E03F4B00221A60FDF7C8FFA2
:10379000386108E0FDF7C4FF02463B69D31A022BEB
:1037A00001D903237BE1364B1B6803F00203002B96
:1037B000F0D17B681B6803F00803002B30D07B68D6
:1037C0005B69002B16D0304B01221A60FDF7A8FF71
:1037D000386108E0FDF7A4FF02463B69D31A022BCB
:1037E00001D903235BE1264B5B6F03F00203002B3F
:1037F000F0D015E0244B00221A60FDF791FF3861EC
:1038000008E0FDF78DFF02463B69D31A022B01D970
:10381000032344E11A4B5B6F03F00203002BF0D14A
:103820007B681B6803F00403002B00F0A0800023DA
:10383000FB75134B1B6C03F08053002B0FD100233F
:10384000BB600F4A0E4B1B6C43F0805313640C4B50
:103850001B6C03F08053BB60BB680123FB750B4BF3
:103860001B6803F48073002B21D1084A074B1B68A7
:1038700043F480731360FDF753FF386111E000BF1C
:103880000038024000004742800E4742007000406E
:10389000FDF746FF02463B69D31A022B01D90323E9
:1038A000FDE0814B1B6803F48073002BF0D07B6834
:1038B0009B68012B06D17D4A7C4B1B6F43F00103B3
:1038C00013671CE07B689B68052B0CD1774A774B0C
:1038D0001B6F43F004031367744A744B1B6F43F070
:1038E000010313670BE0714A704B1B6F23F0010358
:1038F00013676E4A6D4B1B6F23F0040313677B68DD
:103900009B68002B15D0FDF70BFF38610AE0FDF72F
:1039100007FF02463B69D31A41F28832934201D92C
:103920000323BCE0614B1B6F03F00203002BEED0BE
:1039300014E0FDF7F5FE38610AE0FDF7F1FE0246FE
:103940003B69D31A41F28832934201D90323A6E09E
:10395000564B1B6F03F00203002BEED1FB7D012BB6
:1039600005D1524A514B1B6C23F0805313647B6882
:103970009B69002B00F092804C4B9B6803F00C037A
:10398000082B5CD07B689B69022B41D1484B0022FD
:103990001A60FDF7C5FE386108E0FDF7C1FE02467A
:1039A0003B69D31A022B01D9032378E03F4B1B68F4
:1039B00003F00073002BF0D13C497B68DA697B6827
:1039C0001B6A1A437B685B6A9B011A437B689B6A8C
:1039D0005B08013B1B041A437B68DB6A1B0613432D
:1039E0004B60334B01221A60FDF79AFE386108E004
:1039F000FDF796FE02463B69D31A022B01D9032339
:103A00004DE02A4B1B6803F00073002BF0D045E01B
:103A1000274B00221A60FDF783FE386108E0FDF7AE
:103A20007FFE02463B69D31A022B01D9032336E0FD
:103A30001E4B1B6803F00073002BF0D12EE07B6857
:103A40009B69012B01D1012329E0184B5B68FB60C6
:103A5000FB6803F480027B68DB699A421CD1FB6837
:103A600003F03F027B681B6A9A4215D1FA6847F659
:103A7000C07313407A68526A93420DD1FB6803F415
:103A800040327B689B6A9A4206D1FB6803F0706201
:103A90007B68DB6A9A4201D0012300E000231846CC
:103AA0001837BD4680BD00BF00700040003802409E
:103AB0006000474280B584B000AF786039607B68B1
:103AC000002B01D10123CCE0684B1B6803F00F02EF
:103AD0003B689A420CD2654B3A68D2B21A70634B7B
:103AE0001B6803F00F023B689A4201D00123B8E043
:103AF0007B681B6803F00203002B20D07B681B68E7
:103B000003F00403002B05D0594A594B9B6843F43A
:103B1000E05393607B681B6803F00803002B05D01B
:103B2000534A534B9B6843F4604393605049504B56
:103B30009B6823F0F0027B689B6813438B607B6873
:103B40001B6803F00103002B44D07B685B68012BEA
:103B500007D1474B1B6803F40033002B19D1012315
:103B60007FE07B685B68022B03D07B685B68032B7C
:103B700007D13F4B1B6803F00073002B09D10123D1
:103B80006FE03B4B1B6803F00203002B01D10123C4
:103B900067E03749364B9B6823F003027B685B681C
:103BA00013438B60FDF7BCFDF8600AE0FDF7B8FD3C
:103BB0000246FB68D31A41F28832934201D90323AB
:103BC0004FE02B4B9B6803F00C027B685B689B000B
:103BD0009A42EBD1254B1B6803F00F023B689A42D7
:103BE0000CD9224B3A68D2B21A70204B1B6803F0F2
:103BF0000F023B689A4201D0012332E07B681B68C8
:103C000003F00403002B08D01949194B9B6823F4D7
:103C1000E0527B68DB6813438B607B681B6803F0B2
:103C20000803002B09D01249114B9B6823F4604212
:103C30007B681B69DB0013438B6000F089F8014649
:103C40000B4B9B681B0903F00F030A4AD35C21FA54
:103C500003F3094A1360094B1B681846FDF71CFD66
:103C6000002318461037BD4680BD00BF003C02400F
:103C7000003802401064000800000020040000200A
:103C800080B58CB000AFF860B9607A60FB68002B3B
:103C900029D10023BB612B4A2A4B1B6B43F0010344
:103CA0001363284B1B6B03F00103BB61BB694FF42B
:103CB0008073FB6102233B620323BB6200237B62B0
:103CC0000023FB6207F11C0319461F48FEF78EFE16
:103CD0001C481C4B9B6823F0EC62B9687B680B4363
:103CE0001343836029E000237B61164A154B1B6B4D
:103CF00043F004031363134B1B6B03F004037B615A
:103D00007B694FF40073FB6102233B620323BB62B8
:103D100000237B620023FB6207F11C0319460B485A
:103D2000FEF764FE0748074B9B6823F078427B68E8
:103D3000D900BB680B431343836000BF3037BD46D7
:103D400080BD00BF00380240000002400008024071
:103D50002DE9F04F8FB000AF0023FB6200237B639F
:103D60000023BB6200233B63624B9B6803F00C03A0
:103D7000042B07D0082B08D0002B40F0B2805E4BFC
:103D80003B63B1E05D4B3B63AEE05A4B5B6803F0D5
:103D90003F03FB62574B5B6803F48003002B4ED05C
:103DA000544B5B689B094FF0000440F2FF114FF049
:103DB000000201EA030102EA04020B461446600114
:103DC0007862786A40EAD36078625B013B62D7E947
:103DD00008345B1A64EB02044FEA841949EA9369D8
:103DE0004FEA8318B8EB030869EB04094FEAC903EB
:103DF000FB61FB6943EA5873FB614FEAC803BB618F
:103E0000D7E9068918EB010849EB02094FEA492373
:103E10007B617B6943EAD8537B614FEA48233B616E
:103E2000D7E9048940464946FB6A4FF000041A4628
:103E30002346FCF72DFA03460C467B6343E02D4BEB
:103E40005B689B094FF0000440F2FF114FF0000245
:103E500001EA030102EA04020B4614466001F8601D
:103E6000F86840EAD360F8605B01BB60D7E90234D0
:103E70005B1A64EB0204A60146EA93669D01ED1A03
:103E800066EB0406F3007B607B6843EA55737B6056
:103E9000EB003B6097E860006D1846EB02064FEAC6
:103EA000862B4BEA955B4FEA852A55465E462846A7
:103EB0003146FB6A4FF000041A462346FCF7E8F946
:103EC00003460C467B630B4B5B681B0C03F0030340
:103ED00001335B00BB627A6BBB6AB2FBF3F33B63FB
:103EE00002E0054B3B6300BF3B6B18463C37BD46C9
:103EF000BDE8F08F003802400024F40000127A0080
:103F000080B400AF034B1B681846BD465DF8047BC8
:103F1000704700BF0000002080B500AFFFF7F0FF42
:103F20000146054B9B689B0A03F00703034AD35CD9
:103F300021FA03F3184680BD0038024020640008CF
:103F400080B500AFFFF7DCFF0146054B9B685B0BBC
:103F500003F00703034AD35C21FA03F3184680BD3C
:103F6000003802402064000880B582B000AF78605D
:103F70007B68002B01D101231DE07B6893F83D3065
:103F8000DBB2002B06D17B68002283F83C207868E6
:103F9000FDF774F97B68022283F83D207B681A687C
:103FA0007B6804331946104600F0C8FA7B6801228A
:103FB00083F83D20002318460837BD4680BD80B4F5
:103FC00085B000AF78607B681B687A681268D26839
:103FD00042F00102DA607B681B689B6803F007030C
:103FE000FB60FB68062B07D07B681B687A68126849
:103FF000126842F001021A60002318461437BD46C9
:104000005DF8047B704780B483B000AF78607B6854
:104010001B687A681268D26822F00102DA607B6855
:104020001B681A6A41F211131340002B0FD17B68F1
:104030001B681A6A40F244431340002B07D17B6887
:104040001B687A681268126822F001021A60002365
:1040500018460C37BD465DF8047B704780B582B0CA
:1040600000AF786039607B68002B01D101232DE01F
:104070007B6893F83D30DBB2002B06D17B680022D1
:1040800083F83C20786800F025F87B68022283F8EA
:104090003D207B681A687B6804331946104600F09F
:1040A0004DFA7B681B687A681268126822F0080271
:1040B0001A607B681B687A68126811683A680A435C
:1040C0001A607B68012283F83D20002318460837D8
:1040D000BD4680BD80B483B000AF786000BF0C37B0
:1040E000BD465DF8047B704780B582B000AF786054
:1040F0007B681B681B6903F00203022B22D17B68DB
:104100001B68DB6803F00203022B1BD17B681B6872
:104110006FF002021A617B6801221A777B681B68C4
:104120009B6903F00303002B03D0786800F0E7F9E4
:1041300005E0786800F0D9F9786800F0EAF97B6862
:1041400000221A777B681B681B6903F00403042BA9
:1041500022D17B681B68DB6803F00403042B1BD1AE
:104160007B681B686FF004021A617B6802221A7771
:104170007B681B689B6903F44073002B03D078684D
:1041800000F0BDF905E0786800F0AFF9786800F05C
:10419000C0F97B6800221A777B681B681B6903F0F3
:1041A0000803082B22D17B681B68DB6803F0080337
:1041B000082B1BD17B681B686FF008021A617B68B3
:1041C00004221A777B681B68DB6903F00303002B6A
:1041D00003D0786800F093F905E0786800F085F97D
:1041E000786800F096F97B6800221A777B681B6874
:1041F0001B6903F01003102B22D17B681B68DB685E
:1042000003F01003102B1BD17B681B686FF01002AA
:104210001A617B6808221A777B681B68DB6903F4E4
:104220004073002B03D0786800F069F905E07868E6
:1042300000F05BF9786800F06CF97B6800221A776F
:104240007B681B681B6903F00103012B0ED17B689F
:104250001B68DB6803F00103012B07D17B681B6837
:104260006FF001021A617868FCF75CFE7B681B68DE
:104270001B6903F08003802B0ED17B681B68DB6811
:1042800003F08003802B07D17B681B686FF08002EE
:104290001A61786800F06AFB7B681B681B6903F091
:1042A0004003402B0ED17B681B68DB6803F04003A2
:1042B000402B07D17B681B686FF040021A61786859
:1042C00000F031F97B681B681B6903F02003202B89
:1042D0000ED17B681B68DB6803F02003202B07D11D
:1042E0007B681B686FF020021A61786800F034FB6D
:1042F00000BF0837BD4680BD80B584B000AF786090
:1043000039607B6893F83C30012B01D10223A6E091
:104310007B68012283F83C207B68022283F83D20E1
:104320007B681B689B68FB60FB6823F07703FB607E
:10433000FB6823F47F43FB607B681B68FA689A6024
:104340003B681B68402B67D0402B0BD8102B73D0D9
:10435000102B02D8002B6FD078E0202B6CD0302BA4
:104360006AD073E0702B0DD0702B04D8502B33D053
:10437000602B41D06AE0B3F5805F66D0B3F5005F93
:1043800017D063E07B6818683B6899683B685A6897
:104390003B68DB6800F052FA7B681B689B68FB6037
:1043A000FB6843F07703FB607B681B68FA689A60E0
:1043B0004CE07B6818683B6899683B685A683B68C2
:1043C000DB6800F03BFA7B681B687A6812689268C9
:1043D00042F480429A6039E07B6818683B6859680B
:1043E0003B68DB681A4600F0AFF97B681B68502118
:1043F000184600F008FA29E07B6818683B6859689D
:104400003B68DB681A4600F0CEF97B681B686021C8
:10441000184600F0F8F919E07B6818683B6859689D
:104420003B68DB681A4600F08FF97B681B68402107
:10443000184600F0E8F909E07B681A683B681B68D9
:104440001946104600F0DFF900E000BF7B6801224A
:1044500083F83D207B68002283F83C200023184627
:104460001037BD4680BD80B582B000AF786039603E
:104470007B6893F83C30012B01D1022331E07B684B
:10448000012283F83C207B68022283F83D203968B2
:10449000786800F0D3F80346002B09D07B6801222E
:1044A00083F83D207B68002283F83C20012318E03C
:1044B0007B681B687A681268D26822F04002DA6072
:1044C0007B681B687A681268D26822F48042DA60DE
:1044D0007B68012283F83D207B68002283F83C2022
:1044E000002318460837BD4680BD80B483B000AFB6
:1044F000786000BF0C37BD465DF8047B704780B420
:1045000083B000AF786000BF0C37BD465DF8047B18
:10451000704780B483B000AF786000BF0C37BD46F1
:104520005DF8047B704780B483B000AF786000BF53
:104530000C37BD465DF8047B7047000080B485B041
:1045400000AF786039607B681B68FB607B68344A29
:1045500093420FD07B68B3F1804F0BD07B68314A18
:10456000934207D07B68304A934203D07B682F4A3E
:10457000934208D1FB6823F07003FB603B685B68E3
:10458000FA681343FB607B68254A93421BD07B6823
:10459000B3F1804F17D07B68224A934213D07B68D7
:1045A000214A93420FD07B68204A93420BD07B680C
:1045B0001F4A934207D07B681E4A934203D07B6810
:1045C0001D4A934208D1FB6823F44073FB603B68AB
:1045D000DB68FA681343FB60FB6823F080023B68EA
:1045E0005B691343FB607B68FA681A603B689A68F2
:1045F0007B68DA623B681A687B689A627B68084A63
:10460000934203D13B681A697B681A637B68012275
:104610005A6100BF1437BD465DF8047B704700BF88
:10462000000001400004004000080040000C004071
:1046300000400140004401400048014080B586B080
:1046400000AF786039607B681B689B687B617B6921
:1046500023F070037B613B685B687A6913437B617D
:104660007B6923F007037B613B681B687A6913430E
:104670007B617B681B687A699A603B685B68302B5A
:104680005CD0302B06D8102B58D0202B56D0002BC6
:1046900054D054E0502B3DD0502B02D8402B10D09A
:1046A0004DE0602B40D0702B00D048E07B6818684C
:1046B0003B68D9683B689A683B681B6900F0BEF8A4
:1046C0003DE03B681B68052B01D1012338E07B6886
:1046D0001B681B6A3B617B681B687A681268126AF8
:1046E00022F001021A627B681B689B69FB60FB6811
:1046F00023F0F003FB603B681B691B01FA6813435E
:10470000FB607B681B68FA689A617B681B683A6982
:104710001A6214E07B6818683B6899683B681B69FB
:104720001A4600F011F80AE07B6818683B6899683F
:104730003B681B691A4600F036F800E000BF002312
:1047400018461837BD4680BD80B487B000AFF8600A
:10475000B9607A60FB681B6A7B61FB681B6A23F0A7
:104760000102FB681A62FB689B693B613B6923F0AD
:10477000F0033B617B681B013A6913433B617B6932
:1047800023F00A037B617A69BB6813437B61FB6892
:104790003A699A61FB687A691A6200BF1C37BD46A4
:1047A0005DF8047B704780B487B000AFF860B960F3
:1047B0007A60FB681B6A23F01002FB681A62FB68D0
:1047C0009B697B61FB681B6A3B617B6923F47043D7
:1047D0007B617B681B037A6913437B613B6923F030
:1047E000A0033B61BB681B013A6913433B61FB6853
:1047F0007A699A61FB683A691A6200BF1C37BD4644
:104800005DF8047B704780B485B000AF7860396094
:104810007B689B68FB60FB6823F07003FB603A6871
:10482000FB68134343F00703FB607B68FA689A60F8
:1048300000BF1437BD465DF8047B704780B487B075
:1048400000AFF860B9607A603B60FB689B687B6191
:104850007B6923F47F437B613B681A027B681A43C0
:10486000BB6813437A6913437B61FB687A699A607A
:1048700000BF1C37BD465DF8047B704780B485B02F
:1048800000AF786039607B6893F83C30012B01D130
:10489000022350E07B68012283F83C207B680222DF
:1048A00083F83D207B681B685B68FB607B681B6846
:1048B0009B68BB60FB6823F07003FB603B681B6870
:1048C000FA681343FB607B681B68FA685A607B6870
:1048D0001B681C4A934218D07B681B68B3F1804F59
:1048E00013D07B681B68184A93420ED07B681B6804
:1048F000164A934209D07B681B68154A934204D03C
:104900007B681B68134A93420CD1BB6823F0800379
:10491000BB603B685B68BA681343BB607B681B681D
:10492000BA689A607B68012283F83D207B68002288
:1049300083F83C20002318461437BD465DF8047BFD
:10494000704700BF00000140000400400008004024
:10495000000C00400040014080B483B000AF78609C
:1049600000BF0C37BD465DF8047B704780B483B050
:1049700000AF786000BF0C37BD465DF8047B704720
:1049800080B582B000AF78607B68002B01D1012335
:104990003FE07B6893F83930DBB2002B06D17B68AF
:1049A000002283F838207868FCF7EAFC7B68242230
:1049B00083F839207B681B687A681268D26822F411
:1049C0000052DA60786800F0D1FC7B681B687A6876
:1049D0001268126922F490421A617B681B687A6837
:1049E0001268526922F02A025A617B681B687A6851
:1049F0001268D26842F40052DA607B680022DA63FF
:104A00007B68202283F839207B68202283F83A20B3
:104A1000002318460837BD4680BD80B588B002AF78
:104A2000F860B9603B601346FB8000237B61FB6844
:104A300093F83930DBB2202B40F08280BB68002B2A
:104A400002D0FB88002B01D101237AE0FB6893F8A8
:104A50003830012B01D1022373E0FB68012283F877
:104A60003820FB680022DA63FB68212283F83920B2
:104A7000FCF756FE7861FB68FA889A84FB68FA882E
:104A8000DA84FB68002283F8382041E0FB68DB8C85
:104A90009BB2013B9AB2FB68DA84FB689B68B3F572
:104AA000805F21D13B6800937B6900228021F868F8
:104AB00000F0DCFA0346002B01D0032341E0BB6881
:104AC0003B61FB681B683A691288C2F308025A60AE
:104AD000FB681B69002B03D1BB680233BB6017E086
:104AE000BB680133BB6013E03B6800937B69002225
:104AF0008021F86800F0BAFA0346002B01D00323A6
:104B00001FE0FB681A68BB68591CB9601B785360CA
:104B1000FB68DB8C9BB2002BB8D13B6800937B69B0
:104B200000224021F86800F0A1FA0346002B01D0D2
:104B3000032306E0FB68202283F83920002300E0ED
:104B4000022318461837BD4680BD000080B586B0E8
:104B500000AFF860B9601346FB80FB6893F83A3009
:104B6000DBB2202B66D1BB68002B02D0FB88002B68
:104B700001D101235FE0FB6893F83830012B01D1AC
:104B8000022358E0FB68012283F83820BA68FB68EA
:104B90009A62FB68FA889A85FB680022DA63FB68F0
:104BA000222283F83A20FB685B6B254ADA63FB68B4
:104BB0005B6B244A1A64FB685B6B234ADA64FB680C
:104BC0005B6B00221A6507F108037B61FB68586B79
:104BD000FB681B68043319467B691A68FB88FDF77C
:104BE000B3FB00233B61FB681B681B683B61FB68F0
:104BF0001B685B683B613B69FB68002283F83820D7
:104C0000FB681B68FA681268D26842F48072DA6046
:104C1000FB681B68FA681268526942F001025A6127
:104C2000FB681B68FA681268526942F040025A61D8
:104C3000002300E0022318461837BD4680BD00BFA0
:104C4000554F0008BD4F0008D94F000880B584B00B
:104C500000AF78600023FB607B681B685B6903F032
:104C60008003802B0CBF01230023DBB2FB607B6839
:104C700093F83930DBB2212B16D1FB68002B13D00F
:104C80007B681B687A681268526922F080025A6158
:104C90007B681B6B002B04D07B681B6B1846FDF7F1
:104CA000ABFB786800F02CFA7B681B685B6903F04B
:104CB0004003402B0CBF01230023DBB2FB607B6869
:104CC00093F83A30DBB2222B16D1FB68002B13D0BD
:104CD0007B681B687A681268526922F040025A6148
:104CE0007B685B6B002B04D07B685B6B1846FDF721
:104CF00083FB786800F01AFA002318461037BD4687
:104D000080BD000080B588B000AF78607B681B680C
:104D10001B68FB617B681B68DB68BB617B681B6889
:104D20005B697B6100233B610023FB60FB6903F04F
:104D30000F033B613B69002B0DD1FB6903F020039E
:104D4000002B08D0BB6903F02003002B03D0786848
:104D500000F08BFAD1E03B69002B00F0B0807B695A
:104D600003F00103002B05D1BB6903F49073002B02
:104D700000F0A580FB6903F00103002B0AD0BB699A
:104D800003F48073002B05D07B68DB6B43F00102DA
:104D90007B68DA63FB6903F00403002B0AD07B69AC
:104DA00003F00103002B05D07B68DB6B43F00202AC
:104DB0007B68DA63FB6903F00203002B0AD07B698E
:104DC00003F00103002B05D07B68DB6B43F004028A
:104DD0007B68DA63FB6903F00803002B0FD0BB6923
:104DE00003F02003002B04D17B6903F00103002BA7
:104DF00005D07B68DB6B43F008027B68DA637B6875
:104E0000DB6B002B78D0FB6903F02003002B07D06D
:104E1000BB6903F02003002B02D0786800F025FA6C
:104E20007B681B685B6903F04003402B0CBF0123C8
:104E30000023DBB2FB607B68DB6B03F00803002B15
:104E400002D1FB68002B31D0786800F06FF97B68E5
:104E50001B685B6903F04003402B23D17B681B6810
:104E60007A681268526922F040025A617B685B6B73
:104E7000002B13D07B685B6B214A1A657B685B6BE8
:104E80001846FDF729FB0346002B16D07B685B6BA9
:104E90001B6D7A68526B104698470EE0786800F0F8
:104EA0004FF80AE0786800F04BF806E0786800F008
:104EB00047F87B680022DA631EE000BF1CE0FB6954
:104EC00003F08003002B08D0BB6903F08003002BA4
:104ED00003D0786800F05CF90FE0FB6903F0400351
:104EE000002B0AD0BB6903F04003002B05D0786883
:104EF00000F0A3F900BF00E000BF2037BD4680BD31
:104F00006951000880B483B000AF786000BF0C37EF
:104F1000BD465DF8047B704780B483B000AF786015
:104F200000BF0C37BD465DF8047B704780B483B08A
:104F300000AF786000BF0C37BD465DF8047B70475A
:104F400080B483B000AF786000BF0C37BD465DF819
:104F5000047B704780B584B000AF78607B689B6B42
:104F6000FB607B681B681B6803F48073002B1ED1F9
:104F7000FB680022DA85FB681B68FA681268D26851
:104F800022F48072DA60FB681B68FA681268526962
:104F900022F001025A61FB681B68FA6812685269C4
:104FA00022F040025A61FB68202283F83A20F86818
:104FB000FFF7B2FF00BF1037BD4680BD80B584B09B
:104FC00000AF78607B689B6BFB60F868FFF7AEFF13
:104FD00000BF1037BD4680BD80B584B000AF78609B
:104FE0000023FB607B689B6BBB60BB681B685B69D5
:104FF00003F08003802B0CBF01230023DBB2FB6096
:10500000BB6893F83930DBB2212B08D1FB68002B49
:1050100005D0BB680022DA84B86800F071F8BB687C
:105020001B685B6903F04003402B0CBF0123002386
:10503000DBB2FB60BB6893F83A30DBB2222B08D1BD
:10504000FB68002B05D0BB680022DA85B86800F049
:105050006DF8BB68DB6B43F01002BB68DA63B868BD
:10506000FFF76EFF00BF1037BD4680BD80B584B02E
:1050700000AFF860B9603B601346FB712CE0BB6980
:10508000B3F1FF3F28D0BB69002B07D0FCF748FBEA
:1050900002463B68D21ABB699A421DD9FB681B685D
:1050A000FA681268D26822F4D072DA60FB681B6872
:1050B000FA681268526922F001025A61FB682022E4
:1050C00083F83920FB68202283F83A20FB6800220D
:1050D00083F8382003230FE0FB681B681A68BB685D
:1050E0001A40BB689A420CBF01230023DBB21A4668
:1050F000FB799A42C3D0002318461037BD4680BDC5
:1051000080B483B000AF78607B681B687A681268EF
:10511000D26822F0C002DA607B68202283F839204E
:1051200000BF0C37BD465DF8047B704780B483B088
:1051300000AF78607B681B687A681268D26822F4D6
:105140009072DA607B681B687A681268526922F094
:1051500001025A617B68202283F83A2000BF0C3795
:10516000BD465DF8047B704780B584B000AF7860C1
:105170007B689B6BFB60FB680022DA85FB68002282
:10518000DA84F868FFF7DCFE00BF1037BD4680BD4B
:1051900080B485B000AF78607B6893F83930DBB2BB
:1051A000212B43D17B689B68B3F5805F19D17B6865
:1051B0001B6AFB607B681B68FA681288C2F30802EE
:1051C0005A607B681B69002B05D17B681B6A9A1C9F
:1051D0007B681A620EE07B681B6A5A1C7B681A6245
:1051E00008E07B681A687B681B6A581C796808624B
:1051F0001B7853607B68DB8C9BB2013B9BB27A6867
:105200001946D184002B0FD17B681B687A6812681D
:10521000D26822F08002DA607B681B687A681268C4
:10522000D26842F04002DA60002300E00223184610
:105230001437BD465DF8047B704780B582B000AF7F
:1052400078607B681B687A681268D26822F0400236
:10525000DA607B68202283F839207868FFF752FEF5
:10526000002318460837BD4680BD80B584B000AF26
:1052700078607B6893F83A30DBB2222B71D17B687F
:105280009B68B3F5805F23D17B689B6AFB607B687A
:105290001B69002B0ED17B681B685B689BB2C3F354
:1052A00008039AB2FB681A807B689B6A9A1C7B6829
:1052B0009A6229E07B681B685B689BB2DBB29AB29A
:1052C000FB681A807B689B6A5A1C7B689A621BE0A9
:1052D0007B681B69002B0AD17B689B6A591C7A6822
:1052E00091627A6812685268D2B21A700CE07B68D8
:1052F0009B6A591C7A6891627A6812685268D2B2C5
:1053000002F07F02D2B21A707B68DB8D9BB2013B48
:105310009BB27A681946D185002B20D17B681B6827
:105320007A681268D26822F02002DA607B681B6813
:105330007A681268D26822F48072DA607B681B682F
:105340007A681268526922F001025A617B68202251
:1053500083F83A207868FFF7DFFD002302E000239E
:1053600000E0022318461037BD4680BD2DE9F04FFE
:10537000A3B000AFF867FB6F1968FB6F1B681B6970
:1053800023F44052FB6FDB6813430B61FB6F9A6899
:10539000FB6F1B691A43FB6F5B691A43FB6FDB6989
:1053A0001343C7F88430FB6F1968FB6F1B68DB6819
:1053B00023F4164222F00C02D7F884301343CB605A
:1053C000FB6F1968FB6F1B685B6923F44072FB6F0E
:1053D0009B6913434B61FB6FDB69B3F5004F40F0F2
:1053E0007181FB6F1B68B44A934205D0FB6F1B6849
:1053F000B24A934240F0B180FEF7A2FDC7F88000A8
:10540000FB6F1D68D7F8803019464FF000020B463D
:105410001446DB1844EB04045B1844EB0204E00080
:105420007864786C40EA53707864DB003B64D7E9B9
:10543000103413EB010844EB020940464946FB6F68
:105440005B684FF00004DB1844EB04041A46234663
:10545000FAF71EFF03460C461A46994BA3FB02239C
:105460005B091E01D7F8803019464FF000020B4649
:105470001446DB1844EB04045B1844EB0204E00020
:10548000F863F86B40EA5370F863DB00BB63D7E95D
:105490000E3413EB010844EB020940464946FB6F0A
:1054A0005B684FF00004DB1844EB04041A46234603
:1054B000FAF7EEFE03460C461A46814BA3FB021395
:1054C0005B09642101FB03F3D31ADB0032337C4A0E
:1054D000A2FB03235B095B0003F4F8731E44D7F8B7
:1054E000803019464FF000020B461446DB1844EB9F
:1054F00004045B1844EB0204E0007863786B40EA34
:1055000053707863DB003B63D7E90C3413EB01087D
:1055100044EB020940464946FB6F5B684FF00004CC
:10552000DB1844EB04041A462346FAF7B1FE03469F
:105530000C461A46624BA3FB02135B09642101FB74
:1055400003F3D31ADB0032335D4AA2FB03235B096A
:1055500003F007033344AB6040E2FEF7DDFCC7F81D
:105560008000FB6F1A683A67D7F8803019464FF011
:1055700000020B461446DB1844EB04045B1844EBB2
:105580000204E000F862F86A40EA5370F862DB0057
:10559000BB62D7E90A345D1844EB0206284631465F
:1055A000FB6F5B684FF00004DB1844EB04041A4601
:1055B0002346FAF76DFE03460C461A46404BA3FB02
:1055C00002235B091E01D7F8803019464FF0000214
:1055D0000B461446DB1844EB04045B1844EB02044E
:1055E0004FEAC40B4BEA537B4FEAC30A53465C466F
:1055F00013EB010A44EB020B50465946FB6F5B6804
:105600004FF00004DB1844EB04041A462346FAF773
:105610003FFE03460C461A46294BA3FB02135B09C7
:10562000642101FB03F3D31ADB003233244AA2FBCB
:1056300003235B095B0003F4F8731E44D7F8803042
:1056400019464FF000020B461446DB1844EB0404E5
:105650005B1844EB02044FEAC40949EA53794FEA64
:10566000C30843464C4613EB010844EB020940468D
:105670004946FB6F5B684FF00004DB1844EB040401
:105680001A462346FAF704FE03460C461A460C4B0C
:10569000A3FB02135B09642101FB03F3D31ADB00B4
:1056A0003233074AA2FB03235B0903F007033344A9
:1056B0003A6F936092E100BF001001400014014076
:1056C0001F85EB51FB6F1A68C14B9A4205D0FB6FE7
:1056D0001A68C04B9A4240F0BF80FEF731FCC7F811
:1056E0008000FB6F1E68D7F8803019464FF000022B
:1056F0000B461446DB1844EB04045B1844EB02042D
:10570000E0007862786A40EA53707862DB003B62BE
:10571000D7E9083413EB010844EB02094046494637
:10572000FB6F5B684FF00004A200FA65FA6D42EA75
:105730009372FA659B00BB65D7E91623FAF7A8FDBB
:1057400003460C461A46A44BA3FB02235B091D012A
:10575000D7F8803019464FF000020B461446DB188C
:1057600044EB04045B1844EB0204E000F861F869C0
:1057700040EA5370F861DB00BB61D7E9063413EBF4
:10578000010844EB020940464946FB6F5B684FF055
:105790000004A2007A657A6D42EA93727A659B00F2
:1057A0003B65D7E91423FAF773FD03460C461A4606
:1057B000894BA3FB02135B09642101FB03F3D31A9A
:1057C0001B013233844AA2FB03235B0903F0F0037D
:1057D0001D44D7F8803019464FF000020B4614469E
:1057E000DB1844EB04045B1844EB0204E00078612E
:1057F000786940EA53707861DB003B61D7E9043493
:1058000013EB010844EB020940464946FB6F5B6815
:105810004FF00004A200FA64FA6C42EA9372FA6450
:105820009B00BB64D7E91223FAF732FD03460C460E
:105830001A46694BA3FB02135B09642101FB03F3C6
:10584000D31A1B013233644AA2FB03235B0903F022
:105850000F032B44B360C1E0FEF75EFBC7F8800086
:10586000FB6F1B68BB65D7F8803019464FF000020C
:105870000B461446DB1844EB04045B1844EB0204AB
:10588000E60046EA5376DD002B4634465D1844EBCD
:10589000020628463146FB6F5B684FF00004A50006
:1058A0007D677D6F45EA93757D679C003C67D7E90E
:1058B0001C23FAF7EDFC03460C461A46464BA3FBA5
:1058C00002135B091D01D7F8803019464FF0000222
:1058D0000B461446DB1844EB04045B1844EB02044B
:1058E000E000F860F86840EA5370F860D800B860EB
:1058F000D7E9023413EB010844EB0209404649465C
:10590000FB6F5B684FF00004A600FE66FE6E46EA81
:105910009376FE669C00BC66D7E91A23FAF7B8FCBA
:1059200003460C461A462C4BA3FB02135B09642169
:1059300001FB03F3D31A1B013233274AA2FB0313E3
:105940005B0903F0F0031D44D7F8803019464FF08F
:1059500000020B461446DB1844EB04045B1844EBCE
:105960000204E0007860786840EA53707860D800FC
:10597000386097E8180013EB010844EB0209404631
:105980004946FB6F5B684FF00004A6007E667E6EA2
:1059900046EA93767E669C003C66D7E91823FAF7C0
:1059A00077FC03460C461A460B4BA3FB02135B091C
:1059B000642101FB03F3D31A1B013233064AA2FB15
:1059C00003135B0903F00F032B44BA6D936005E0EA
:1059D00000100140001401401F85EB5100BF8C37BF
:1059E000BD46BDE8F08F00BFDFF834D0002103E0F2
:1059F0000C4B5B58435004310B480C4B42189A42F5
:105A0000F6D30B4A02E0002342F8043B094B9A42CA
:105A1000F9D3FBF709FE00F017F8FAF7F9FE704723
:105A200000000220986400080000002070000020A0
:105A300070000020F0030020FEE70000014B186812
:105A4000704700BF0C00002070B50D4E0D4CA41B1C
:105A5000A4100025A54209D10B4E0C4C00F0A8FC67
:105A6000A41BA4100025A54205D170BD56F8253011
:105A700098470135EEE756F8253098470135F2E7AB
:105A80009064000890640008906400089464000822
:105A9000931E222B10B50C4604D900230B701C4614
:105AA000204610BD0A2A09D1002807DA2D230B70E1
:105AB00040420121214400F041F8F1E70021F9E7DB
:105AC000FFF7E6BF02440346934200D1704703F854
:105AD000011BF9E70CB430B5174B0C1E9DB01D68C7
